{
  "address": "0x66C23E9A61D49dab72a4286D70069CcA576cCAFf",
  "abi": [
    {
      "inputs": [
        {
          "internalType": "address",
          "name": "sRip_",
          "type": "address"
        },
        {
          "internalType": "address",
          "name": "authority_",
          "type": "address"
        }
      ],
      "stateMutability": "nonpayable",
      "type": "constructor"
    },
    {
      "anonymous": false,
      "inputs": [
        {
          "indexed": true,
          "internalType": "address",
          "name": "donor_",
          "type": "address"
        },
        {
          "indexed": true,
          "internalType": "uint256",
          "name": "amount_",
          "type": "uint256"
        }
      ],
      "name": "AllWithdrawn",
      "type": "event"
    },
    {
      "anonymous": false,
      "inputs": [
        {
          "indexed": true,
          "internalType": "contract IRipProtocolAuthority",
          "name": "authority",
          "type": "address"
        }
      ],
      "name": "AuthorityUpdated",
      "type": "event"
    },
    {
      "anonymous": false,
      "inputs": [
        {
          "indexed": true,
          "internalType": "address",
          "name": "donor_",
          "type": "address"
        },
        {
          "indexed": true,
          "internalType": "address",
          "name": "recipient_",
          "type": "address"
        },
        {
          "indexed": false,
          "internalType": "uint256",
          "name": "amount_",
          "type": "uint256"
        }
      ],
      "name": "Deposited",
      "type": "event"
    },
    {
      "anonymous": false,
      "inputs": [
        {
          "indexed": true,
          "internalType": "address",
          "name": "donor_",
          "type": "address"
        },
        {
          "indexed": true,
          "internalType": "address",
          "name": "recipient_",
          "type": "address"
        },
        {
          "indexed": false,
          "internalType": "uint256",
          "name": "amount_",
          "type": "uint256"
        }
      ],
      "name": "Donated",
      "type": "event"
    },
    {
      "anonymous": false,
      "inputs": [
        {
          "indexed": false,
          "internalType": "bool",
          "name": "active_",
          "type": "bool"
        }
      ],
      "name": "EmergencyShutdown",
      "type": "event"
    },
    {
      "anonymous": false,
      "inputs": [
        {
          "indexed": true,
          "internalType": "address",
          "name": "recipient_",
          "type": "address"
        },
        {
          "indexed": false,
          "internalType": "uint256",
          "name": "amount_",
          "type": "uint256"
        }
      ],
      "name": "Redeemed",
      "type": "event"
    },
    {
      "anonymous": false,
      "inputs": [
        {
          "indexed": true,
          "internalType": "address",
          "name": "donor_",
          "type": "address"
        },
        {
          "indexed": true,
          "internalType": "address",
          "name": "recipient_",
          "type": "address"
        },
        {
          "indexed": false,
          "internalType": "uint256",
          "name": "amount_",
          "type": "uint256"
        }
      ],
      "name": "Withdrawn",
      "type": "event"
    },
    {
      "inputs": [],
      "name": "authority",
      "outputs": [
        {
          "internalType": "contract IRipProtocolAuthority",
          "name": "",
          "type": "address"
        }
      ],
      "stateMutability": "view",
      "type": "function"
    },
    {
      "inputs": [
        {
          "internalType": "uint256",
          "name": "amount_",
          "type": "uint256"
        },
        {
          "internalType": "address",
          "name": "recipient_",
          "type": "address"
        }
      ],
      "name": "deposit",
      "outputs": [],
      "stateMutability": "nonpayable",
      "type": "function"
    },
    {
      "inputs": [],
      "name": "depositDisabled",
      "outputs": [
        {
          "internalType": "bool",
          "name": "",
          "type": "bool"
        }
      ],
      "stateMutability": "view",
      "type": "function"
    },
    {
      "inputs": [
        {
          "internalType": "address",
          "name": "donor_",
          "type": "address"
        },
        {
          "internalType": "address",
          "name": "recipient_",
          "type": "address"
        }
      ],
      "name": "depositsTo",
      "outputs": [
        {
          "internalType": "uint256",
          "name": "",
          "type": "uint256"
        }
      ],
      "stateMutability": "view",
      "type": "function"
    },
    {
      "inputs": [
        {
          "internalType": "bool",
          "name": "active_",
          "type": "bool"
        }
      ],
      "name": "disableDeposits",
      "outputs": [],
      "stateMutability": "nonpayable",
      "type": "function"
    },
    {
      "inputs": [
        {
          "internalType": "bool",
          "name": "active_",
          "type": "bool"
        }
      ],
      "name": "disableRedeems",
      "outputs": [],
      "stateMutability": "nonpayable",
      "type": "function"
    },
    {
      "inputs": [
        {
          "internalType": "bool",
          "name": "active_",
          "type": "bool"
        }
      ],
      "name": "disableWithdrawals",
      "outputs": [],
      "stateMutability": "nonpayable",
      "type": "function"
    },
    {
      "inputs": [
        {
          "internalType": "address",
          "name": "donor_",
          "type": "address"
        },
        {
          "internalType": "address",
          "name": "recipient_",
          "type": "address"
        }
      ],
      "name": "donatedTo",
      "outputs": [
        {
          "internalType": "uint256",
          "name": "",
          "type": "uint256"
        }
      ],
      "stateMutability": "view",
      "type": "function"
    },
    {
      "inputs": [
        {
          "internalType": "address",
          "name": "",
          "type": "address"
        },
        {
          "internalType": "uint256",
          "name": "",
          "type": "uint256"
        }
      ],
      "name": "donationInfo",
      "outputs": [
        {
          "internalType": "address",
          "name": "recipient",
          "type": "address"
        },
        {
          "internalType": "uint256",
          "name": "deposit",
          "type": "uint256"
        },
        {
          "internalType": "uint256",
          "name": "agnosticDeposit",
          "type": "uint256"
        },
        {
          "internalType": "uint256",
          "name": "carry",
          "type": "uint256"
        },
        {
          "internalType": "uint256",
          "name": "indexAtLastChange",
          "type": "uint256"
        }
      ],
      "stateMutability": "view",
      "type": "function"
    },
    {
      "inputs": [
        {
          "internalType": "bool",
          "name": "active_",
          "type": "bool"
        }
      ],
      "name": "emergencyShutdown",
      "outputs": [],
      "stateMutability": "nonpayable",
      "type": "function"
    },
    {
      "inputs": [
        {
          "internalType": "address",
          "name": "donor_",
          "type": "address"
        }
      ],
      "name": "getAllDeposits",
      "outputs": [
        {
          "internalType": "address[]",
          "name": "",
          "type": "address[]"
        },
        {
          "internalType": "uint256[]",
          "name": "",
          "type": "uint256[]"
        }
      ],
      "stateMutability": "view",
      "type": "function"
    },
    {
      "inputs": [
        {
          "internalType": "address",
          "name": "",
          "type": "address"
        }
      ],
      "name": "recipientInfo",
      "outputs": [
        {
          "internalType": "uint256",
          "name": "totalDebt",
          "type": "uint256"
        },
        {
          "internalType": "uint256",
          "name": "carry",
          "type": "uint256"
        },
        {
          "internalType": "uint256",
          "name": "agnosticDebt",
          "type": "uint256"
        },
        {
          "internalType": "uint256",
          "name": "indexAtLastChange",
          "type": "uint256"
        }
      ],
      "stateMutability": "view",
      "type": "function"
    },
    {
      "inputs": [],
      "name": "redeem",
      "outputs": [],
      "stateMutability": "nonpayable",
      "type": "function"
    },
    {
      "inputs": [],
      "name": "redeemDisabled",
      "outputs": [
        {
          "internalType": "bool",
          "name": "",
          "type": "bool"
        }
      ],
      "stateMutability": "view",
      "type": "function"
    },
    {
      "inputs": [
        {
          "internalType": "address",
          "name": "recipient_",
          "type": "address"
        }
      ],
      "name": "redeemableBalance",
      "outputs": [
        {
          "internalType": "uint256",
          "name": "",
          "type": "uint256"
        }
      ],
      "stateMutability": "view",
      "type": "function"
    },
    {
      "inputs": [],
      "name": "sRIP",
      "outputs": [
        {
          "internalType": "address",
          "name": "",
          "type": "address"
        }
      ],
      "stateMutability": "view",
      "type": "function"
    },
    {
      "inputs": [
        {
          "internalType": "contract IRipProtocolAuthority",
          "name": "_newAuthority",
          "type": "address"
        }
      ],
      "name": "setAuthority",
      "outputs": [],
      "stateMutability": "nonpayable",
      "type": "function"
    },
    {
      "inputs": [
        {
          "internalType": "address",
          "name": "donor_",
          "type": "address"
        }
      ],
      "name": "totalDeposits",
      "outputs": [
        {
          "internalType": "uint256",
          "name": "",
          "type": "uint256"
        }
      ],
      "stateMutability": "view",
      "type": "function"
    },
    {
      "inputs": [
        {
          "internalType": "address",
          "name": "donor_",
          "type": "address"
        }
      ],
      "name": "totalDonated",
      "outputs": [
        {
          "internalType": "uint256",
          "name": "",
          "type": "uint256"
        }
      ],
      "stateMutability": "view",
      "type": "function"
    },
    {
      "inputs": [
        {
          "internalType": "uint256",
          "name": "amount_",
          "type": "uint256"
        },
        {
          "internalType": "address",
          "name": "recipient_",
          "type": "address"
        }
      ],
      "name": "withdraw",
      "outputs": [],
      "stateMutability": "nonpayable",
      "type": "function"
    },
    {
      "inputs": [],
      "name": "withdrawAll",
      "outputs": [],
      "stateMutability": "nonpayable",
      "type": "function"
    },
    {
      "inputs": [],
      "name": "withdrawDisabled",
      "outputs": [
        {
          "internalType": "bool",
          "name": "",
          "type": "bool"
        }
      ],
      "stateMutability": "view",
      "type": "function"
    }
  ],
  "transactionHash": "0x1d2186a4c934226717ef3cc3382406948e2793a796f61995507042e049485105",
  "args": [
    "0x5C0e476519DE63339C188088898f5E248610cE15",
    "0xb5F91D8AfB91fD5E89Cab44Db67Bc1C1DC54Bc8E"
  ],
  "solcInputHash": "779738ecd5917f7b723a802a9ac834c1",
  "bytecode": "0x60e0604052600c60a08190526b15539055551213d49256915160a21b60c09081526200002f916000919062000119565b503480156200003d57600080fd5b506040516200268b3803806200268b8339810160408190526200006091620001dc565b600180546001600160a01b0319166001600160a01b0383169081179091556040518291907f2f658b440c35314f52658ea8a740e05b284cdc84dc9ae01e891f21b8933e7cad90600090a2506001600160a01b038216620001065760405162461bcd60e51b815260206004820152601860248201527f496e76616c6964206164647265737320666f7220735249500000000000000000604482015260640160405180910390fd5b506001600160a01b031660805262000251565b828054620001279062000214565b90600052602060002090601f0160209004810192826200014b576000855562000196565b82601f106200016657805160ff191683800117855562000196565b8280016001018555821562000196579182015b828111156200019657825182559160200191906001019062000179565b50620001a4929150620001a8565b5090565b5b80821115620001a45760008155600101620001a9565b80516001600160a01b0381168114620001d757600080fd5b919050565b60008060408385031215620001f057600080fd5b620001fb83620001bf565b91506200020b60208401620001bf565b90509250929050565b600181811c908216806200022957607f821691505b602082108114156200024b57634e487b7160e01b600052602260045260246000fd5b50919050565b6080516123d8620002b3600039600081816101fd0152818161049d015281816108bb01528181610ee201528181610f0e01528181611411015281816116020152818161184f015281816118e101528181611c2f0152611f5a01526123d86000f3fe608060405234801561001057600080fd5b50600436106101815760003560e01c8063853828b6116100d8578063be040fb01161008c578063e6434fee11610066578063e6434fee1461037e578063e742cfc0146103c3578063e9403256146103d757600080fd5b8063be040fb014610350578063bf7e214f14610358578063d312896d1461036b57600080fd5b8063a774b316116100bd578063a774b316146102d2578063b58d6674146102e5578063b884110b1461033c57600080fd5b8063853828b6146102b7578063a0641288146102bf57600080fd5b806352165b591161013a5780636e553f65116101145780636e553f651461027e578063765ad8e3146102915780637a9e5e4b146102a457600080fd5b806352165b59146102375780635bd345b714610258578063668b90e31461026b57600080fd5b806328bbc4b01161016b57806328bbc4b0146101c15780632df968b9146101d45780633bb5f9e1146101f857600080fd5b8062f714ce146101865780630f3a1d471461019b575b600080fd5b61019961019436600461205c565b6103ea565b005b6101ae6101a936600461208c565b61092b565b6040519081526020015b60405180910390f35b6101ae6101cf3660046120a9565b6109bc565b6001546101e890600160b01b900460ff1681565b60405190151581526020016101b8565b61021f7f000000000000000000000000000000000000000000000000000000000000000081565b6040516001600160a01b0390911681526020016101b8565b61024a61024536600461208c565b610a62565b6040516101b89291906120d7565b6101ae6102663660046120a9565b610c2b565b610199610279366004612169565b610cf0565b61019961028c36600461205c565b610dd5565b61019961029f366004612169565b611195565b6101996102b236600461208c565b61125f565b610199611355565b6101ae6102cd36600461208c565b61165c565b6101996102e0366004612169565b6116a0565b61031c6102f336600461208c565b600360208190526000918252604090912080546001820154600283015492909301549092919084565b6040805194855260208501939093529183015260608201526080016101b8565b6001546101e890600160a81b900460ff1681565b61019961176a565b60015461021f906001600160a01b031681565b610199610379366004612169565b611941565b61039161038c366004612186565b611a79565b604080516001600160a01b0390961686526020860194909452928401919091526060830152608082015260a0016101b8565b6001546101e890600160a01b900460ff1681565b6101ae6103e536600461208c565b611ad1565b600154600160a81b900460ff16156104495760405162461bcd60e51b815260206004820152601c60248201527f5769746864726177732063757272656e746c792064697361626c65640000000060448201526064015b60405180910390fd5b600082116104995760405162461bcd60e51b815260206004820152601760248201527f496e76616c696420776974686472617720616d6f756e740000000000000000006044820152606401610440565b60007f00000000000000000000000000000000000000000000000000000000000000006001600160a01b0316632986c0e56040518163ffffffff1660e01b8152600401602060405180830381865afa1580156104f9573d6000803e3d6000fd5b505050506040513d601f19601f8201168201806040525081019061051d91906121b2565b9050600061052b3384611b87565b905060001981141561057f5760405162461bcd60e51b815260206004820152601960248201527f4e6f20646f6e6174696f6e7320746f20726563697069656e74000000000000006044820152606401610440565b3360009081526002602052604081208054839081106105a0576105a06121cb565b90600052602060002090600502019050806001015485106107c95760006105cf82600201548360040154611c0c565b82600301546105de91906121f7565b9050846001600160a01b0316336001600160a01b03167f4dfff917e1fbb261a082e98cc7d43029621f6a6eb05ff3fef1510d5f1eb4857c8360405161062591815260200190565b60405180910390a333600090815260026020526040902080548490811061064e5761064e6121cb565b60009182526020808320600590920290910180546001600160a01b031916815560018082018490556002808301859055600383018590556004909201849055338452915260408220546106a1919061220f565b90508084146107c2573360009081526002602052604090208054829081106106cb576106cb6121cb565b906000526020600020906005020160026000336001600160a01b03166001600160a01b03168152602001908152602001600020858154811061070f5761070f6121cb565b60009182526020808320845460059093020180546001600160a01b0319166001600160a01b0390931692909217825560018085015490830155600280850154818401556003808601549084015560049485015494909201939093553382529091526040902080548061078357610783612226565b60008281526020812060056000199093019283020180546001600160a01b03191681556001810182905560028101829055600381018290556004015590555b5050610829565b6107db81600201548260040154611c0c565b8160030160008282546107ee91906121f7565b9250508190555084816001016000828254610809919061220f565b9091555050600181015461081c90611c2b565b6002820155600481018390555b6001600160a01b0384166000908152600360208190526040909120600281015491810154909161085891611c0c565b81600101600082825461086b91906121f7565b909155505080548690829060009061088490849061220f565b9091555050600181015481546108a29161089d916121f7565b611c2b565b6002820155600381018490556108e26001600160a01b037f0000000000000000000000000000000000000000000000000000000000000000163388611ccd565b6040518681526001600160a01b0386169033907fd1c19fbcd4551a5edfb66d43d2e337c04837afda3482b42bdf569a8fccdae5fb906020015b60405180910390a3505050505050565b6001600160a01b038116600090815260026020526040812081805b82548110156109b4576000838281548110610963576109636121cb565b9060005260206000209060050201905061098581600201548260040154611c0c565b816003015461099491906121f7565b61099e90846121f7565b92505080806109ac9061223c565b915050610946565b509392505050565b6000806109c98484611b87565b9050600019811415610a1d5760405162461bcd60e51b815260206004820152600b60248201527f4e6f206465706f736974730000000000000000000000000000000000000000006044820152606401610440565b6001600160a01b0384166000908152600260205260409020805482908110610a4757610a476121cb565b90600052602060002090600502016001015491505092915050565b6001600160a01b038116600090815260026020526040902080546060918291610acd5760405162461bcd60e51b815260206004820152601460248201527f55736572206973206e6f7420646f6e6174696e670000000000000000000000006044820152606401610440565b805460008167ffffffffffffffff811115610aea57610aea612257565b604051908082528060200260200182016040528015610b13578160200160208202803683370190505b50905060008267ffffffffffffffff811115610b3157610b31612257565b604051908082528060200260200182016040528015610b5a578160200160208202803683370190505b50905060005b83811015610c1e57848181548110610b7a57610b7a6121cb565b600091825260209091206005909102015483516001600160a01b0390911690849083908110610bab57610bab6121cb565b60200260200101906001600160a01b031690816001600160a01b031681525050848181548110610bdd57610bdd6121cb565b906000526020600020906005020160010154828281518110610c0157610c016121cb565b602090810291909101015280610c168161223c565b915050610b60565b5090969095509350505050565b600080610c388484611b87565b9050600019811415610c8c5760405162461bcd60e51b815260206004820152601960248201527f4e6f20646f6e6174696f6e7320746f20726563697069656e74000000000000006044820152606401610440565b6001600160a01b0384166000908152600260205260408120805483908110610cb657610cb66121cb565b90600052602060002090600502019050610cd881600201548260040154611c0c565b8160030154610ce791906121f7565b95945050505050565b600160009054906101000a90046001600160a01b03166001600160a01b0316630c340a246040518163ffffffff1660e01b8152600401602060405180830381865afa158015610d43573d6000803e3d6000fd5b505050506040513d601f19601f82011682018060405250810190610d67919061226d565b6001600160a01b0316336001600160a01b031614600090610d9b5760405162461bcd60e51b8152600401610440919061228a565b5060018054911515600160a01b027fffffffffffffffffffffff00ffffffffffffffffffffffffffffffffffffffff909216919091179055565b600154600160a01b900460ff1615610e2f5760405162461bcd60e51b815260206004820152601b60248201527f4465706f736974732063757272656e746c792064697361626c656400000000006044820152606401610440565b60008211610e7f5760405162461bcd60e51b815260206004820152601660248201527f496e76616c6964206465706f73697420616d6f756e74000000000000000000006044820152606401610440565b6001600160a01b038116610ed55760405162461bcd60e51b815260206004820152601960248201527f496e76616c696420726563697069656e742061646472657373000000000000006044820152606401610440565b610f0a6001600160a01b037f000000000000000000000000000000000000000000000000000000000000000016333085611dfd565b60007f00000000000000000000000000000000000000000000000000000000000000006001600160a01b0316632986c0e56040518163ffffffff1660e01b8152600401602060405180830381865afa158015610f6a573d6000803e3d6000fd5b505050506040513d601f19601f82011682018060405250810190610f8e91906121b2565b33600081815260026020526040812092935090610fab9085611b87565b905060001981141561105557816040518060a00160405280866001600160a01b03168152602001878152602001610fe188611c2b565b815260006020808301829052604092830188905284546001808201875595835291819020845160059093020180546001600160a01b0319166001600160a01b0390931692909217825583015193810193909355810151600283015560608101516003830155608001516004909101556110d8565b6000828281548110611069576110696121cb565b9060005260206000209060050201905061108b81600201548260040154611c0c565b81600301600082825461109e91906121f7565b92505081905550858160010160008282546110b991906121f7565b909155505060018101546110cc90611c2b565b60028201556004018390555b6001600160a01b0384166000908152600360208190526040909120600281015491810154909161110791611c0c565b81600101600082825461111a91906121f7565b90915550508054869082906000906111339084906121f7565b90915550506001810154815461114c9161089d916121f7565b6002820155600381018490556040518681526001600160a01b0386169033907f8752a472e571a816aea92eec8dae9baf628e840f4929fbcc2d155e6233ff68a79060200161091b565b600160009054906101000a90046001600160a01b03166001600160a01b0316630c340a246040518163ffffffff1660e01b8152600401602060405180830381865afa1580156111e8573d6000803e3d6000fd5b505050506040513d601f19601f8201168201806040525081019061120c919061226d565b6001600160a01b0316336001600160a01b0316146000906112405760405162461bcd60e51b8152600401610440919061228a565b5060018054911515600160b01b0260ff60b01b19909216919091179055565b600160009054906101000a90046001600160a01b03166001600160a01b0316630c340a246040518163ffffffff1660e01b8152600401602060405180830381865afa1580156112b2573d6000803e3d6000fd5b505050506040513d601f19601f820116820180604052508101906112d6919061226d565b6001600160a01b0316336001600160a01b03161460009061130a5760405162461bcd60e51b8152600401610440919061228a565b50600180546001600160a01b0319166001600160a01b0383169081179091556040517f2f658b440c35314f52658ea8a740e05b284cdc84dc9ae01e891f21b8933e7cad90600090a250565b600154600160a81b900460ff16156113af5760405162461bcd60e51b815260206004820152601c60248201527f5769746864726177732063757272656e746c792064697361626c6564000000006044820152606401610440565b33600090815260026020526040902080548061140d5760405162461bcd60e51b815260206004820152601d60248201527f55736572206e6f7420646f6e6174696e6720746f20616e797468696e670000006044820152606401610440565b60007f00000000000000000000000000000000000000000000000000000000000000006001600160a01b0316632986c0e56040518163ffffffff1660e01b8152600401602060405180830381865afa15801561146d573d6000803e3d6000fd5b505050506040513d601f19601f8201168201806040525081019061149191906121b2565b90506000805b838110156115dc5760008582815481106114b3576114b36121cb565b906000526020600020906005020190508060010154836114d391906121f7565b81546001600160a01b03166000908152600360208190526040909120600281015491810154929550916115069190611c0c565b81600101600082825461151991906121f7565b909155505060018201548154829060009061153590849061220f565b90915550506001810154815461154e9161089d916121f7565b8160020181905550848160030181905550600061157383600201548460040154611c0c565b836003015461158291906121f7565b83546040518281529192506001600160a01b03169033907f4dfff917e1fbb261a082e98cc7d43029621f6a6eb05ff3fef1510d5f1eb4857c9060200160405180910390a350505080806115d49061223c565b915050611497565b503360009081526002602052604081206115f591611fe4565b6116296001600160a01b037f0000000000000000000000000000000000000000000000000000000000000000163383611ccd565b604051819033907f2c13e87212a9869e0b5272de5d2e944f828d0dca3a4200794421708702f92ba590600090a350505050565b6001600160a01b03811660009081526003602081905260408220600281015491810154909161168a91611c0c565b816001015461169991906121f7565b9392505050565b600160009054906101000a90046001600160a01b03166001600160a01b0316630c340a246040518163ffffffff1660e01b8152600401602060405180830381865afa1580156116f3573d6000803e3d6000fd5b505050506040513d601f19601f82011682018060405250810190611717919061226d565b6001600160a01b0316336001600160a01b03161460009061174b5760405162461bcd60e51b8152600401610440919061228a565b5060018054911515600160a81b0260ff60a81b19909216919091179055565b600154600160b01b900460ff16156117c45760405162461bcd60e51b815260206004820152601a60248201527f52656465656d732063757272656e746c792064697361626c65640000000000006044820152606401610440565b60006117cf3361165c565b9050600081116118215760405162461bcd60e51b815260206004820152601560248201527f4e6f2072656465656d61626c652062616c616e636500000000000000000000006044820152606401610440565b336000908152600360205260409020805461183b90611c2b565b8160020181905550600081600101819055507f00000000000000000000000000000000000000000000000000000000000000006001600160a01b0316632986c0e56040518163ffffffff1660e01b8152600401602060405180830381865afa1580156118ab573d6000803e3d6000fd5b505050506040513d601f19601f820116820180604052508101906118cf91906121b2565b60038201556119086001600160a01b037f0000000000000000000000000000000000000000000000000000000000000000163384611ccd565b60405182815233907f4896181ff8f4543cc00db9fe9b6fb7e6f032b7eb772c72ab1ec1b4d2e03b93699060200160405180910390a25050565b600160009054906101000a90046001600160a01b03166001600160a01b0316630c340a246040518163ffffffff1660e01b8152600401602060405180830381865afa158015611994573d6000803e3d6000fd5b505050506040513d601f19601f820116820180604052508101906119b8919061226d565b6001600160a01b0316336001600160a01b0316146000906119ec5760405162461bcd60e51b8152600401610440919061228a565b50600180547fffffffffffffffffffff0000ffffffffffffffffffffffffffffffffffffffff16600160a01b83151590810260ff60a81b191691909117600160a81b82021760ff60b01b1916600160b01b8202179091556040519081527fba40372a3a724dca3c57156128ef1e896724b65b37a17f190b1ad5de68f3a4f39060200160405180910390a150565b60026020528160005260406000208181548110611a9557600080fd5b6000918252602090912060059091020180546001820154600283015460038401546004909401546001600160a01b039093169550909350919085565b6001600160a01b03811660009081526002602052604081208054611b375760405162461bcd60e51b815260206004820152601460248201527f55736572206973206e6f7420646f6e6174696e670000000000000000000000006044820152606401610440565b6000805b82548110156109b457828181548110611b5657611b566121cb565b90600052602060002090600502016001015482611b7391906121f7565b915080611b7f8161223c565b915050611b3b565b6001600160a01b0382166000908152600260205260408120600019825b8254811015611c0357846001600160a01b0316838281548110611bc957611bc96121cb565b60009182526020909120600590910201546001600160a01b03161415611bf157809150611c03565b80611bfb8161223c565b915050611ba4565b50949350505050565b6000611c188383611f36565b611c2184611f51565b611699919061220f565b60007f00000000000000000000000000000000000000000000000000000000000000006001600160a01b0316632986c0e56040518163ffffffff1660e01b8152600401602060405180830381865afa158015611c8b573d6000803e3d6000fd5b505050506040513d601f19601f82011682018060405250810190611caf91906121b2565b611cbd83633b9aca00612332565b611cc79190612351565b92915050565b604080516001600160a01b038481166024830152604480830185905283518084039091018152606490920183526020820180517bffffffffffffffffffffffffffffffffffffffffffffffffffffffff1663a9059cbb60e01b1790529151600092839290871691611d3e9190612373565b6000604051808303816000865af19150503d8060008114611d7b576040519150601f19603f3d011682016040523d82523d6000602084013e611d80565b606091505b5091509150818015611daa575080511580611daa575080806020019051810190611daa91906123ae565b611df65760405162461bcd60e51b815260206004820152600f60248201527f5452414e534645525f4641494c454400000000000000000000000000000000006044820152606401610440565b5050505050565b604080516001600160a01b0385811660248301528481166044830152606480830185905283518084039091018152608490920183526020820180517bffffffffffffffffffffffffffffffffffffffffffffffffffffffff166323b872dd60e01b1790529151600092839290881691611e769190612373565b6000604051808303816000865af19150503d8060008114611eb3576040519150601f19603f3d011682016040523d82523d6000602084013e611eb8565b606091505b5091509150818015611ee2575080511580611ee2575080806020019051810190611ee291906123ae565b611f2e5760405162461bcd60e51b815260206004820152601460248201527f5452414e534645525f46524f4d5f4641494c45440000000000000000000000006044820152606401610440565b505050505050565b6000633b9aca00611f478385612332565b6116999190612351565b6000633b9aca007f00000000000000000000000000000000000000000000000000000000000000006001600160a01b0316632986c0e56040518163ffffffff1660e01b8152600401602060405180830381865afa158015611fb6573d6000803e3d6000fd5b505050506040513d601f19601f82011682018060405250810190611fda91906121b2565b611cbd9084612332565b50805460008255600502906000526020600020908101906120059190612008565b50565b5b808211156120435780546001600160a01b031916815560006001820181905560028201819055600382018190556004820155600501612009565b5090565b6001600160a01b038116811461200557600080fd5b6000806040838503121561206f57600080fd5b82359150602083013561208181612047565b809150509250929050565b60006020828403121561209e57600080fd5b813561169981612047565b600080604083850312156120bc57600080fd5b82356120c781612047565b9150602083013561208181612047565b604080825283519082018190526000906020906060840190828701845b828110156121195781516001600160a01b0316845292840192908401906001016120f4565b5050508381038285015284518082528583019183019060005b8181101561214e57835183529284019291840191600101612132565b5090979650505050505050565b801515811461200557600080fd5b60006020828403121561217b57600080fd5b81356116998161215b565b6000806040838503121561219957600080fd5b82356121a481612047565b946020939093013593505050565b6000602082840312156121c457600080fd5b5051919050565b634e487b7160e01b600052603260045260246000fd5b634e487b7160e01b600052601160045260246000fd5b6000821982111561220a5761220a6121e1565b500190565b600082821015612221576122216121e1565b500390565b634e487b7160e01b600052603160045260246000fd5b6000600019821415612250576122506121e1565b5060010190565b634e487b7160e01b600052604160045260246000fd5b60006020828403121561227f57600080fd5b815161169981612047565b600060208083526000845481600182811c9150808316806122ac57607f831692505b8583108114156122ca57634e487b7160e01b85526022600452602485fd5b8786018381526020018180156122e757600181146122f857612323565b60ff19861682528782019650612323565b60008b81526020902060005b8681101561231d57815484820152908501908901612304565b83019750505b50949998505050505050505050565b600081600019048311821515161561234c5761234c6121e1565b500290565b60008261236e57634e487b7160e01b600052601260045260246000fd5b500490565b6000825160005b81811015612394576020818601810151858301520161237a565b818111156123a3576000828501525b509190910192915050565b6000602082840312156123c057600080fd5b81516116998161215b56fea164736f6c634300080a000a",
  "devdoc": {
    "kind": "dev",
    "methods": {
      "deposit(uint256,address)": {
        "params": {
          "amount_": "Amount of sRIP debt issued from donor to recipient",
          "recipient_": "Address to direct staking yield and vault shares to"
        }
      },
      "redeem()": {
        "details": "Note that a recipient redeeming their vault shares effectively pays back all sRIP debt to donors at the time of redeem. Any future incurred debt will be accounted for with a subsequent redeem or a withdrawal by the specific donor."
      }
    },
    "title": "YieldDirector (codename Tyche) ",
    "version": 1
  },
  "userdoc": {
    "kind": "user",
    "methods": {
      "deposit(uint256,address)": {
        "notice": "Deposit sRIP, records sender address and assign rebases to recipient"
      },
      "depositsTo(address,address)": {
        "notice": "Get deposited sRIP amount for specific recipient"
      },
      "donatedTo(address,address)": {
        "notice": "Return total amount of sRIP donated to recipient since last full withdrawal"
      },
      "getAllDeposits(address)": {
        "notice": "Return arrays of donor's recipients and deposit amounts, matched by index"
      },
      "redeem()": {
        "notice": "Redeem recipient's full donated amount of sRIP at current index"
      },
      "redeemableBalance(address)": {
        "notice": "Get redeemable sRIP balance of a recipient address"
      },
      "totalDeposits(address)": {
        "notice": "Return total amount of donor's sRIP deposited"
      },
      "totalDonated(address)": {
        "notice": "Return total amount of sRIP donated from donor since last full withdrawal"
      },
      "withdraw(uint256,address)": {
        "notice": "Withdraw donor's sRIP from vault and subtracts debt from recipient"
      },
      "withdrawAll()": {
        "notice": "Withdraw from all donor positions"
      }
    },
    "notice": "This contract allows donors to deposit their sRIP and donate their rebases to any address. Donors will be able to withdraw their principal sRIP at any time. Donation recipients can also redeem accrued rebases at any time.",
    "version": 1
  },
  "storageLayout": {
    "storage": [
      {
        "astId": 5409,
        "contract": "contracts/peripheral/YieldDirector.sol:YieldDirector",
        "label": "UNAUTHORIZED",
        "offset": 0,
        "slot": "0",
        "type": "t_string_storage"
      },
      {
        "astId": 5412,
        "contract": "contracts/peripheral/YieldDirector.sol:YieldDirector",
        "label": "authority",
        "offset": 0,
        "slot": "1",
        "type": "t_contract(IRipProtocolAuthority)2359"
      },
      {
        "astId": 3341,
        "contract": "contracts/peripheral/YieldDirector.sol:YieldDirector",
        "label": "depositDisabled",
        "offset": 20,
        "slot": "1",
        "type": "t_bool"
      },
      {
        "astId": 3343,
        "contract": "contracts/peripheral/YieldDirector.sol:YieldDirector",
        "label": "withdrawDisabled",
        "offset": 21,
        "slot": "1",
        "type": "t_bool"
      },
      {
        "astId": 3345,
        "contract": "contracts/peripheral/YieldDirector.sol:YieldDirector",
        "label": "redeemDisabled",
        "offset": 22,
        "slot": "1",
        "type": "t_bool"
      },
      {
        "astId": 3371,
        "contract": "contracts/peripheral/YieldDirector.sol:YieldDirector",
        "label": "donationInfo",
        "offset": 0,
        "slot": "2",
        "type": "t_mapping(t_address,t_array(t_struct(DonationInfo)3356_storage)dyn_storage)"
      },
      {
        "astId": 3376,
        "contract": "contracts/peripheral/YieldDirector.sol:YieldDirector",
        "label": "recipientInfo",
        "offset": 0,
        "slot": "3",
        "type": "t_mapping(t_address,t_struct(RecipientInfo)3365_storage)"
      }
    ],
    "types": {
      "t_address": {
        "encoding": "inplace",
        "label": "address",
        "numberOfBytes": "20"
      },
      "t_array(t_struct(DonationInfo)3356_storage)dyn_storage": {
        "base": "t_struct(DonationInfo)3356_storage",
        "encoding": "dynamic_array",
        "label": "struct YieldDirector.DonationInfo[]",
        "numberOfBytes": "32"
      },
      "t_bool": {
        "encoding": "inplace",
        "label": "bool",
        "numberOfBytes": "1"
      },
      "t_contract(IRipProtocolAuthority)2359": {
        "encoding": "inplace",
        "label": "contract IRipProtocolAuthority",
        "numberOfBytes": "20"
      },
      "t_mapping(t_address,t_array(t_struct(DonationInfo)3356_storage)dyn_storage)": {
        "encoding": "mapping",
        "key": "t_address",
        "label": "mapping(address => struct YieldDirector.DonationInfo[])",
        "numberOfBytes": "32",
        "value": "t_array(t_struct(DonationInfo)3356_storage)dyn_storage"
      },
      "t_mapping(t_address,t_struct(RecipientInfo)3365_storage)": {
        "encoding": "mapping",
        "key": "t_address",
        "label": "mapping(address => struct YieldDirector.RecipientInfo)",
        "numberOfBytes": "32",
        "value": "t_struct(RecipientInfo)3365_storage"
      },
      "t_string_storage": {
        "encoding": "bytes",
        "label": "string",
        "numberOfBytes": "32"
      },
      "t_struct(DonationInfo)3356_storage": {
        "encoding": "inplace",
        "label": "struct YieldDirector.DonationInfo",
        "members": [
          {
            "astId": 3347,
            "contract": "contracts/peripheral/YieldDirector.sol:YieldDirector",
            "label": "recipient",
            "offset": 0,
            "slot": "0",
            "type": "t_address"
          },
          {
            "astId": 3349,
            "contract": "contracts/peripheral/YieldDirector.sol:YieldDirector",
            "label": "deposit",
            "offset": 0,
            "slot": "1",
            "type": "t_uint256"
          },
          {
            "astId": 3351,
            "contract": "contracts/peripheral/YieldDirector.sol:YieldDirector",
            "label": "agnosticDeposit",
            "offset": 0,
            "slot": "2",
            "type": "t_uint256"
          },
          {
            "astId": 3353,
            "contract": "contracts/peripheral/YieldDirector.sol:YieldDirector",
            "label": "carry",
            "offset": 0,
            "slot": "3",
            "type": "t_uint256"
          },
          {
            "astId": 3355,
            "contract": "contracts/peripheral/YieldDirector.sol:YieldDirector",
            "label": "indexAtLastChange",
            "offset": 0,
            "slot": "4",
            "type": "t_uint256"
          }
        ],
        "numberOfBytes": "160"
      },
      "t_struct(RecipientInfo)3365_storage": {
        "encoding": "inplace",
        "label": "struct YieldDirector.RecipientInfo",
        "members": [
          {
            "astId": 3358,
            "contract": "contracts/peripheral/YieldDirector.sol:YieldDirector",
            "label": "totalDebt",
            "offset": 0,
            "slot": "0",
            "type": "t_uint256"
          },
          {
            "astId": 3360,
            "contract": "contracts/peripheral/YieldDirector.sol:YieldDirector",
            "label": "carry",
            "offset": 0,
            "slot": "1",
            "type": "t_uint256"
          },
          {
            "astId": 3362,
            "contract": "contracts/peripheral/YieldDirector.sol:YieldDirector",
            "label": "agnosticDebt",
            "offset": 0,
            "slot": "2",
            "type": "t_uint256"
          },
          {
            "astId": 3364,
            "contract": "contracts/peripheral/YieldDirector.sol:YieldDirector",
            "label": "indexAtLastChange",
            "offset": 0,
            "slot": "3",
            "type": "t_uint256"
          }
        ],
        "numberOfBytes": "128"
      },
      "t_uint256": {
        "encoding": "inplace",
        "label": "uint256",
        "numberOfBytes": "32"
      }
    }
  }
}